{
  "_format": "hh-sol-artifact-1",
  "contractName": "RealEstateFungibleToken",
  "sourceName": "contracts/RealEstateFungibleToken.sol",
  "abi": [
    {
      "inputs": [],
      "stateMutability": "nonpayable",
      "type": "constructor"
    },
    {
      "inputs": [
        {
          "internalType": "address",
          "name": "sender",
          "type": "address"
        },
        {
          "internalType": "uint256",
          "name": "balance",
          "type": "uint256"
        },
        {
          "internalType": "uint256",
          "name": "needed",
          "type": "uint256"
        },
        {
          "internalType": "uint256",
          "name": "tokenId",
          "type": "uint256"
        }
      ],
      "name": "ERC1155InsufficientBalance",
      "type": "error"
    },
    {
      "inputs": [
        {
          "internalType": "address",
          "name": "approver",
          "type": "address"
        }
      ],
      "name": "ERC1155InvalidApprover",
      "type": "error"
    },
    {
      "inputs": [
        {
          "internalType": "uint256",
          "name": "idsLength",
          "type": "uint256"
        },
        {
          "internalType": "uint256",
          "name": "valuesLength",
          "type": "uint256"
        }
      ],
      "name": "ERC1155InvalidArrayLength",
      "type": "error"
    },
    {
      "inputs": [
        {
          "internalType": "address",
          "name": "operator",
          "type": "address"
        }
      ],
      "name": "ERC1155InvalidOperator",
      "type": "error"
    },
    {
      "inputs": [
        {
          "internalType": "address",
          "name": "receiver",
          "type": "address"
        }
      ],
      "name": "ERC1155InvalidReceiver",
      "type": "error"
    },
    {
      "inputs": [
        {
          "internalType": "address",
          "name": "sender",
          "type": "address"
        }
      ],
      "name": "ERC1155InvalidSender",
      "type": "error"
    },
    {
      "inputs": [
        {
          "internalType": "address",
          "name": "operator",
          "type": "address"
        },
        {
          "internalType": "address",
          "name": "owner",
          "type": "address"
        }
      ],
      "name": "ERC1155MissingApprovalForAll",
      "type": "error"
    },
    {
      "inputs": [
        {
          "internalType": "address",
          "name": "owner",
          "type": "address"
        }
      ],
      "name": "OwnableInvalidOwner",
      "type": "error"
    },
    {
      "inputs": [
        {
          "internalType": "address",
          "name": "account",
          "type": "address"
        }
      ],
      "name": "OwnableUnauthorizedAccount",
      "type": "error"
    },
    {
      "inputs": [],
      "name": "ReentrancyGuardReentrantCall",
      "type": "error"
    },
    {
      "anonymous": false,
      "inputs": [
        {
          "indexed": true,
          "internalType": "address",
          "name": "account",
          "type": "address"
        },
        {
          "indexed": true,
          "internalType": "address",
          "name": "operator",
          "type": "address"
        },
        {
          "indexed": false,
          "internalType": "bool",
          "name": "approved",
          "type": "bool"
        }
      ],
      "name": "ApprovalForAll",
      "type": "event"
    },
    {
      "anonymous": false,
      "inputs": [
        {
          "indexed": true,
          "internalType": "address",
          "name": "previousOwner",
          "type": "address"
        },
        {
          "indexed": true,
          "internalType": "address",
          "name": "newOwner",
          "type": "address"
        }
      ],
      "name": "OwnershipTransferred",
      "type": "event"
    },
    {
      "anonymous": false,
      "inputs": [
        {
          "components": [
            {
              "internalType": "address",
              "name": "buyer",
              "type": "address"
            },
            {
              "internalType": "address",
              "name": "seller",
              "type": "address"
            },
            {
              "internalType": "uint256",
              "name": "propertyId",
              "type": "uint256"
            },
            {
              "internalType": "uint256",
              "name": "tokensBought",
              "type": "uint256"
            }
          ],
          "indexed": false,
          "internalType": "struct RealEstateFungibleToken.TokenPurchase",
          "name": "purchase",
          "type": "tuple"
        }
      ],
      "name": "TokensBought",
      "type": "event"
    },
    {
      "anonymous": false,
      "inputs": [
        {
          "components": [
            {
              "internalType": "address",
              "name": "seller",
              "type": "address"
            },
            {
              "internalType": "uint256",
              "name": "propertyId",
              "type": "uint256"
            },
            {
              "internalType": "uint256",
              "name": "tokensDelisted",
              "type": "uint256"
            }
          ],
          "indexed": false,
          "internalType": "struct RealEstateFungibleToken.TokenDelisting",
          "name": "delisting",
          "type": "tuple"
        }
      ],
      "name": "TokensDelisted",
      "type": "event"
    },
    {
      "anonymous": false,
      "inputs": [
        {
          "components": [
            {
              "internalType": "address",
              "name": "seller",
              "type": "address"
            },
            {
              "internalType": "uint256",
              "name": "propertyId",
              "type": "uint256"
            },
            {
              "internalType": "uint256",
              "name": "tokensListed",
              "type": "uint256"
            }
          ],
          "indexed": false,
          "internalType": "struct RealEstateFungibleToken.TokenListing",
          "name": "listing",
          "type": "tuple"
        }
      ],
      "name": "TokensListed",
      "type": "event"
    },
    {
      "anonymous": false,
      "inputs": [
        {
          "indexed": false,
          "internalType": "uint256",
          "name": "propertyId",
          "type": "uint256"
        },
        {
          "components": [
            {
              "internalType": "string",
              "name": "metadataURI",
              "type": "string"
            },
            {
              "internalType": "uint256",
              "name": "totalTokens",
              "type": "uint256"
            },
            {
              "internalType": "uint256",
              "name": "pricePerTokenInWei",
              "type": "uint256"
            },
            {
              "internalType": "uint256",
              "name": "fee",
              "type": "uint256"
            }
          ],
          "indexed": false,
          "internalType": "struct RealEstateFungibleToken.Property",
          "name": "property",
          "type": "tuple"
        },
        {
          "indexed": true,
          "internalType": "address",
          "name": "owner",
          "type": "address"
        }
      ],
      "name": "TokensMinted",
      "type": "event"
    },
    {
      "anonymous": false,
      "inputs": [
        {
          "indexed": true,
          "internalType": "address",
          "name": "operator",
          "type": "address"
        },
        {
          "indexed": true,
          "internalType": "address",
          "name": "from",
          "type": "address"
        },
        {
          "indexed": true,
          "internalType": "address",
          "name": "to",
          "type": "address"
        },
        {
          "indexed": false,
          "internalType": "uint256[]",
          "name": "ids",
          "type": "uint256[]"
        },
        {
          "indexed": false,
          "internalType": "uint256[]",
          "name": "values",
          "type": "uint256[]"
        }
      ],
      "name": "TransferBatch",
      "type": "event"
    },
    {
      "anonymous": false,
      "inputs": [
        {
          "indexed": true,
          "internalType": "address",
          "name": "operator",
          "type": "address"
        },
        {
          "indexed": true,
          "internalType": "address",
          "name": "from",
          "type": "address"
        },
        {
          "indexed": true,
          "internalType": "address",
          "name": "to",
          "type": "address"
        },
        {
          "indexed": false,
          "internalType": "uint256",
          "name": "id",
          "type": "uint256"
        },
        {
          "indexed": false,
          "internalType": "uint256",
          "name": "value",
          "type": "uint256"
        }
      ],
      "name": "TransferSingle",
      "type": "event"
    },
    {
      "anonymous": false,
      "inputs": [
        {
          "indexed": false,
          "internalType": "string",
          "name": "value",
          "type": "string"
        },
        {
          "indexed": true,
          "internalType": "uint256",
          "name": "id",
          "type": "uint256"
        }
      ],
      "name": "URI",
      "type": "event"
    },
    {
      "inputs": [
        {
          "internalType": "address",
          "name": "account",
          "type": "address"
        },
        {
          "internalType": "uint256",
          "name": "id",
          "type": "uint256"
        }
      ],
      "name": "balanceOf",
      "outputs": [
        {
          "internalType": "uint256",
          "name": "",
          "type": "uint256"
        }
      ],
      "stateMutability": "view",
      "type": "function"
    },
    {
      "inputs": [
        {
          "internalType": "address[]",
          "name": "accounts",
          "type": "address[]"
        },
        {
          "internalType": "uint256[]",
          "name": "ids",
          "type": "uint256[]"
        }
      ],
      "name": "balanceOfBatch",
      "outputs": [
        {
          "internalType": "uint256[]",
          "name": "",
          "type": "uint256[]"
        }
      ],
      "stateMutability": "view",
      "type": "function"
    },
    {
      "inputs": [
        {
          "internalType": "uint256",
          "name": "propertyId",
          "type": "uint256"
        },
        {
          "internalType": "uint256",
          "name": "amountToBuy",
          "type": "uint256"
        }
      ],
      "name": "buyTokens",
      "outputs": [],
      "stateMutability": "payable",
      "type": "function"
    },
    {
      "inputs": [
        {
          "internalType": "uint256",
          "name": "propertyId",
          "type": "uint256"
        },
        {
          "internalType": "uint256",
          "name": "amountToDelist",
          "type": "uint256"
        }
      ],
      "name": "delistTokenForSale",
      "outputs": [],
      "stateMutability": "nonpayable",
      "type": "function"
    },
    {
      "inputs": [
        {
          "internalType": "uint256",
          "name": "propertyId",
          "type": "uint256"
        }
      ],
      "name": "getAllListingsForProperty",
      "outputs": [
        {
          "components": [
            {
              "internalType": "address",
              "name": "seller",
              "type": "address"
            },
            {
              "internalType": "uint256",
              "name": "propertyId",
              "type": "uint256"
            },
            {
              "internalType": "uint256",
              "name": "tokensListed",
              "type": "uint256"
            }
          ],
          "internalType": "struct RealEstateFungibleToken.TokenListing[]",
          "name": "",
          "type": "tuple[]"
        }
      ],
      "stateMutability": "view",
      "type": "function"
    },
    {
      "inputs": [
        {
          "internalType": "uint256",
          "name": "propertyId",
          "type": "uint256"
        }
      ],
      "name": "getFee",
      "outputs": [
        {
          "internalType": "uint256",
          "name": "",
          "type": "uint256"
        }
      ],
      "stateMutability": "view",
      "type": "function"
    },
    {
      "inputs": [
        {
          "internalType": "uint256",
          "name": "propertyId",
          "type": "uint256"
        }
      ],
      "name": "getPricePerTokenInWei",
      "outputs": [
        {
          "internalType": "uint256",
          "name": "",
          "type": "uint256"
        }
      ],
      "stateMutability": "view",
      "type": "function"
    },
    {
      "inputs": [
        {
          "internalType": "uint256",
          "name": "propertyId",
          "type": "uint256"
        }
      ],
      "name": "getProperty",
      "outputs": [
        {
          "components": [
            {
              "internalType": "string",
              "name": "metadataURI",
              "type": "string"
            },
            {
              "internalType": "uint256",
              "name": "totalTokens",
              "type": "uint256"
            },
            {
              "internalType": "uint256",
              "name": "pricePerTokenInWei",
              "type": "uint256"
            },
            {
              "internalType": "uint256",
              "name": "fee",
              "type": "uint256"
            }
          ],
          "internalType": "struct RealEstateFungibleToken.Property",
          "name": "",
          "type": "tuple"
        }
      ],
      "stateMutability": "view",
      "type": "function"
    },
    {
      "inputs": [
        {
          "internalType": "address",
          "name": "account",
          "type": "address"
        },
        {
          "internalType": "address",
          "name": "operator",
          "type": "address"
        }
      ],
      "name": "isApprovedForAll",
      "outputs": [
        {
          "internalType": "bool",
          "name": "",
          "type": "bool"
        }
      ],
      "stateMutability": "view",
      "type": "function"
    },
    {
      "inputs": [
        {
          "internalType": "uint256",
          "name": "propertyId",
          "type": "uint256"
        },
        {
          "internalType": "uint256",
          "name": "amountToList",
          "type": "uint256"
        }
      ],
      "name": "listTokenForSale",
      "outputs": [],
      "stateMutability": "payable",
      "type": "function"
    },
    {
      "inputs": [
        {
          "internalType": "uint256",
          "name": "",
          "type": "uint256"
        },
        {
          "internalType": "uint256",
          "name": "",
          "type": "uint256"
        }
      ],
      "name": "listings",
      "outputs": [
        {
          "internalType": "address",
          "name": "seller",
          "type": "address"
        },
        {
          "internalType": "uint256",
          "name": "propertyId",
          "type": "uint256"
        },
        {
          "internalType": "uint256",
          "name": "tokensListed",
          "type": "uint256"
        }
      ],
      "stateMutability": "view",
      "type": "function"
    },
    {
      "inputs": [
        {
          "internalType": "address",
          "name": "to",
          "type": "address"
        },
        {
          "internalType": "uint256",
          "name": "propertyId",
          "type": "uint256"
        },
        {
          "internalType": "uint256",
          "name": "totalTokens",
          "type": "uint256"
        },
        {
          "internalType": "uint256",
          "name": "pricePerTokenInWei",
          "type": "uint256"
        },
        {
          "internalType": "string",
          "name": "metadataURI",
          "type": "string"
        }
      ],
      "name": "mint",
      "outputs": [],
      "stateMutability": "nonpayable",
      "type": "function"
    },
    {
      "inputs": [
        {
          "internalType": "address",
          "name": "to",
          "type": "address"
        },
        {
          "internalType": "uint256",
          "name": "propertyId",
          "type": "uint256"
        },
        {
          "internalType": "uint256",
          "name": "totalTokens",
          "type": "uint256"
        },
        {
          "internalType": "uint256",
          "name": "pricePerTokenInWei",
          "type": "uint256"
        },
        {
          "internalType": "string",
          "name": "metadataURI",
          "type": "string"
        },
        {
          "internalType": "uint256",
          "name": "amountToList",
          "type": "uint256"
        }
      ],
      "name": "mintAndListTokenForSale",
      "outputs": [],
      "stateMutability": "payable",
      "type": "function"
    },
    {
      "inputs": [
        {
          "internalType": "address",
          "name": "",
          "type": "address"
        },
        {
          "internalType": "address",
          "name": "",
          "type": "address"
        },
        {
          "internalType": "uint256[]",
          "name": "",
          "type": "uint256[]"
        },
        {
          "internalType": "uint256[]",
          "name": "",
          "type": "uint256[]"
        },
        {
          "internalType": "bytes",
          "name": "",
          "type": "bytes"
        }
      ],
      "name": "onERC1155BatchReceived",
      "outputs": [
        {
          "internalType": "bytes4",
          "name": "",
          "type": "bytes4"
        }
      ],
      "stateMutability": "nonpayable",
      "type": "function"
    },
    {
      "inputs": [
        {
          "internalType": "address",
          "name": "",
          "type": "address"
        },
        {
          "internalType": "address",
          "name": "",
          "type": "address"
        },
        {
          "internalType": "uint256",
          "name": "",
          "type": "uint256"
        },
        {
          "internalType": "uint256",
          "name": "",
          "type": "uint256"
        },
        {
          "internalType": "bytes",
          "name": "",
          "type": "bytes"
        }
      ],
      "name": "onERC1155Received",
      "outputs": [
        {
          "internalType": "bytes4",
          "name": "",
          "type": "bytes4"
        }
      ],
      "stateMutability": "nonpayable",
      "type": "function"
    },
    {
      "inputs": [],
      "name": "owner",
      "outputs": [
        {
          "internalType": "address",
          "name": "",
          "type": "address"
        }
      ],
      "stateMutability": "view",
      "type": "function"
    },
    {
      "inputs": [
        {
          "internalType": "uint256",
          "name": "",
          "type": "uint256"
        }
      ],
      "name": "properties",
      "outputs": [
        {
          "internalType": "string",
          "name": "metadataURI",
          "type": "string"
        },
        {
          "internalType": "uint256",
          "name": "totalTokens",
          "type": "uint256"
        },
        {
          "internalType": "uint256",
          "name": "pricePerTokenInWei",
          "type": "uint256"
        },
        {
          "internalType": "uint256",
          "name": "fee",
          "type": "uint256"
        }
      ],
      "stateMutability": "view",
      "type": "function"
    },
    {
      "inputs": [],
      "name": "renounceOwnership",
      "outputs": [],
      "stateMutability": "nonpayable",
      "type": "function"
    },
    {
      "inputs": [
        {
          "internalType": "address",
          "name": "from",
          "type": "address"
        },
        {
          "internalType": "address",
          "name": "to",
          "type": "address"
        },
        {
          "internalType": "uint256[]",
          "name": "ids",
          "type": "uint256[]"
        },
        {
          "internalType": "uint256[]",
          "name": "values",
          "type": "uint256[]"
        },
        {
          "internalType": "bytes",
          "name": "data",
          "type": "bytes"
        }
      ],
      "name": "safeBatchTransferFrom",
      "outputs": [],
      "stateMutability": "nonpayable",
      "type": "function"
    },
    {
      "inputs": [
        {
          "internalType": "address",
          "name": "from",
          "type": "address"
        },
        {
          "internalType": "address",
          "name": "to",
          "type": "address"
        },
        {
          "internalType": "uint256",
          "name": "id",
          "type": "uint256"
        },
        {
          "internalType": "uint256",
          "name": "value",
          "type": "uint256"
        },
        {
          "internalType": "bytes",
          "name": "data",
          "type": "bytes"
        }
      ],
      "name": "safeTransferFrom",
      "outputs": [],
      "stateMutability": "nonpayable",
      "type": "function"
    },
    {
      "inputs": [
        {
          "internalType": "address",
          "name": "operator",
          "type": "address"
        },
        {
          "internalType": "bool",
          "name": "approved",
          "type": "bool"
        }
      ],
      "name": "setApprovalForAll",
      "outputs": [],
      "stateMutability": "nonpayable",
      "type": "function"
    },
    {
      "inputs": [
        {
          "internalType": "uint256",
          "name": "propertyId",
          "type": "uint256"
        },
        {
          "internalType": "string",
          "name": "metadataURI",
          "type": "string"
        }
      ],
      "name": "setMetadataURI",
      "outputs": [],
      "stateMutability": "nonpayable",
      "type": "function"
    },
    {
      "inputs": [
        {
          "internalType": "uint256",
          "name": "propertyId",
          "type": "uint256"
        },
        {
          "internalType": "uint256",
          "name": "pricePerTokenInWei",
          "type": "uint256"
        }
      ],
      "name": "setPricePerTokenInWei",
      "outputs": [],
      "stateMutability": "nonpayable",
      "type": "function"
    },
    {
      "inputs": [
        {
          "internalType": "bytes4",
          "name": "interfaceId",
          "type": "bytes4"
        }
      ],
      "name": "supportsInterface",
      "outputs": [
        {
          "internalType": "bool",
          "name": "",
          "type": "bool"
        }
      ],
      "stateMutability": "view",
      "type": "function"
    },
    {
      "inputs": [
        {
          "internalType": "uint256",
          "name": "propertyId",
          "type": "uint256"
        }
      ],
      "name": "totalSupply",
      "outputs": [
        {
          "internalType": "uint256",
          "name": "",
          "type": "uint256"
        }
      ],
      "stateMutability": "view",
      "type": "function"
    },
    {
      "inputs": [
        {
          "internalType": "address",
          "name": "newOwner",
          "type": "address"
        }
      ],
      "name": "transferOwnership",
      "outputs": [],
      "stateMutability": "nonpayable",
      "type": "function"
    },
    {
      "inputs": [
        {
          "internalType": "uint256",
          "name": "propertyId",
          "type": "uint256"
        }
      ],
      "name": "uri",
      "outputs": [
        {
          "internalType": "string",
          "name": "",
          "type": "string"
        }
      ],
      "stateMutability": "view",
      "type": "function"
    }
  ],
  "bytecode": "0x60806040523480156200001157600080fd5b5033604051806020016040528060008152506200003481620000ca60201b60201c565b506001600381905550600073ffffffffffffffffffffffffffffffffffffffff168173ffffffffffffffffffffffffffffffffffffffff1603620000b25760006040517f1e4fbdf7000000000000000000000000000000000000000000000000000000008152600401620000a99190620001ea565b60405180910390fd5b620000c381620000df60201b60201c565b5062000568565b8060029081620000db919062000481565b5050565b6000600460009054906101000a900473ffffffffffffffffffffffffffffffffffffffff16905081600460006101000a81548173ffffffffffffffffffffffffffffffffffffffff021916908373ffffffffffffffffffffffffffffffffffffffff1602179055508173ffffffffffffffffffffffffffffffffffffffff168173ffffffffffffffffffffffffffffffffffffffff167f8be0079c531659141344cd1fd0a4f28419497f9722a3daafe3b4186f6b6457e060405160405180910390a35050565b600073ffffffffffffffffffffffffffffffffffffffff82169050919050565b6000620001d282620001a5565b9050919050565b620001e481620001c5565b82525050565b6000602082019050620002016000830184620001d9565b92915050565b600081519050919050565b7f4e487b7100000000000000000000000000000000000000000000000000000000600052604160045260246000fd5b7f4e487b7100000000000000000000000000000000000000000000000000000000600052602260045260246000fd5b600060028204905060018216806200028957607f821691505b6020821081036200029f576200029e62000241565b5b50919050565b60008190508160005260206000209050919050565b60006020601f8301049050919050565b600082821b905092915050565b600060088302620003097fffffffffffffffffffffffffffffffffffffffffffffffffffffffffffffffff82620002ca565b620003158683620002ca565b95508019841693508086168417925050509392505050565b6000819050919050565b6000819050919050565b6000620003626200035c62000356846200032d565b62000337565b6200032d565b9050919050565b6000819050919050565b6200037e8362000341565b620003966200038d8262000369565b848454620002d7565b825550505050565b600090565b620003ad6200039e565b620003ba81848462000373565b505050565b5b81811015620003e257620003d6600082620003a3565b600181019050620003c0565b5050565b601f8211156200043157620003fb81620002a5565b6200040684620002ba565b8101602085101562000416578190505b6200042e6200042585620002ba565b830182620003bf565b50505b505050565b600082821c905092915050565b6000620004566000198460080262000436565b1980831691505092915050565b600062000471838362000443565b9150826002028217905092915050565b6200048c8262000207565b67ffffffffffffffff811115620004a857620004a762000212565b5b620004b4825462000270565b620004c1828285620003e6565b600060209050601f831160018114620004f95760008415620004e4578287015190505b620004f0858262000463565b86555062000560565b601f1984166200050986620002a5565b60005b8281101562000533578489015182556001820191506020850194506020810190506200050c565b868310156200055357848901516200054f601f89168262000443565b8355505b6001600288020188555050505b505050505050565b614e6480620005786000396000f3fe60806040526004361061019b5760003560e01c8063715018a6116100ec578063bd85b0391161008a578063f242432a11610064578063f242432a1461060a578063f2fde38b14610633578063f7b108081461065c578063fcee45f41461069c5761019b565b8063bd85b03914610553578063e985e9c514610590578063f23a6e61146105cd5761019b565b80638da5cb5b116100c65780638da5cb5b14610499578063a22cb465146104c4578063b7802961146104ed578063bc197c81146105165761019b565b8063715018a614610429578063742ff77a146104405780637975ce281461047d5761019b565b806332665ffb116101595780634d3084d3116101335780634d3084d3146103475780634e1273f4146103865780634f0c5f0c146103c35780635e643d11146103ec5761019b565b806332665ffb146102c55780633edfd95414610302578063478b2f281461032b5761019b565b8062fdd58e146101a057806301ffc9a7146101dd578063087dce941461021a5780630e89341c146102435780632406e677146102805780632eb2c2d61461029c575b600080fd5b3480156101ac57600080fd5b506101c760048036038101906101c291906132c7565b6106d9565b6040516101d49190613316565b60405180910390f35b3480156101e957600080fd5b5061020460048036038101906101ff9190613389565b610733565b60405161021191906133d1565b60405180910390f35b34801561022657600080fd5b50610241600480360381019061023c9190613532565b61087d565b005b34801561024f57600080fd5b5061026a6004803603810190610265919061358e565b6108f2565b604051610277919061363a565b60405180910390f35b61029a6004803603810190610295919061365c565b61099a565b005b3480156102a857600080fd5b506102c360048036038101906102be9190613805565b610c0c565b005b3480156102d157600080fd5b506102ec60048036038101906102e7919061358e565b610cb4565b6040516102f99190613990565b60405180910390f35b34801561030e57600080fd5b50610329600480360381019061032491906139b2565b610d91565b005b61034560048036038101906103409190613a49565b610f87565b005b34801561035357600080fd5b5061036e6004803603810190610369919061365c565b610fa6565b60405161037d93929190613b01565b60405180910390f35b34801561039257600080fd5b506103ad60048036038101906103a89190613bfb565b61100d565b6040516103ba9190613d22565b60405180910390f35b3480156103cf57600080fd5b506103ea60048036038101906103e5919061365c565b611116565b005b3480156103f857600080fd5b50610413600480360381019061040e919061358e565b611565565b6040516104209190613e44565b60405180910390f35b34801561043557600080fd5b5061043e611641565b005b34801561044c57600080fd5b506104676004803603810190610462919061358e565b611655565b6040516104749190613316565b60405180910390f35b6104976004803603810190610492919061365c565b611675565b005b3480156104a557600080fd5b506104ae611d6d565b6040516104bb9190613e66565b60405180910390f35b3480156104d057600080fd5b506104eb60048036038101906104e69190613ead565b611d97565b005b3480156104f957600080fd5b50610514600480360381019061050f919061365c565b611dad565b005b34801561052257600080fd5b5061053d60048036038101906105389190613805565b611ee0565b60405161054a9190613efc565b60405180910390f35b34801561055f57600080fd5b5061057a6004803603810190610575919061358e565b611ef5565b6040516105879190613316565b60405180910390f35b34801561059c57600080fd5b506105b760048036038101906105b29190613f17565b611f15565b6040516105c491906133d1565b60405180910390f35b3480156105d957600080fd5b506105f460048036038101906105ef9190613f57565b611fa9565b6040516106019190613efc565b60405180910390f35b34801561061657600080fd5b50610631600480360381019061062c9190613f57565b611fbe565b005b34801561063f57600080fd5b5061065a60048036038101906106559190613fee565b612066565b005b34801561066857600080fd5b50610683600480360381019061067e919061358e565b6120ec565b604051610693949392919061401b565b60405180910390f35b3480156106a857600080fd5b506106c360048036038101906106be919061358e565b6121a4565b6040516106d09190613316565b60405180910390f35b600080600083815260200190815260200160002060008473ffffffffffffffffffffffffffffffffffffffff1673ffffffffffffffffffffffffffffffffffffffff16815260200190815260200160002054905092915050565b60007fd9b67a26000000000000000000000000000000000000000000000000000000007bffffffffffffffffffffffffffffffffffffffffffffffffffffffff1916827bffffffffffffffffffffffffffffffffffffffffffffffffffffffff191614806107fe57507f0e89341c000000000000000000000000000000000000000000000000000000007bffffffffffffffffffffffffffffffffffffffffffffffffffffffff1916827bffffffffffffffffffffffffffffffffffffffffffffffffffffffff1916145b8061086657507f4e2312e0000000000000000000000000000000000000000000000000000000007bffffffffffffffffffffffffffffffffffffffffffffffffffffffff1916827bffffffffffffffffffffffffffffffffffffffffffffffffffffffff1916145b806108765750610875826121c4565b5b9050919050565b600060056000848152602001908152602001600020905060008160010154116108db576040517f08c379a00000000000000000000000000000000000000000000000000000000081526004016108d2906140b3565b60405180910390fd5b818160000190816108ec91906142df565b50505050565b606060056000838152602001908152602001600020600001805461091590614102565b80601f016020809104026020016040519081016040528092919081815260200182805461094190614102565b801561098e5780601f106109635761010080835404028352916020019161098e565b820191906000526020600020905b81548152906001019060200180831161097157829003601f168201915b50505050509050919050565b60006005600084815260200190815260200160002060010154116109f3576040517f08c379a00000000000000000000000000000000000000000000000000000000081526004016109ea906140b3565b60405180910390fd5b806109fe33846106d9565b1015610a3f576040517f08c379a0000000000000000000000000000000000000000000000000000000008152600401610a3690614423565b60405180910390fd5b60056000838152602001908152602001600020600301543414610a97576040517f08c379a0000000000000000000000000000000000000000000000000000000008152600401610a8e9061448f565b60405180910390fd5b600060405180606001604052803373ffffffffffffffffffffffffffffffffffffffff1681526020018481526020018381525090506006600084815260200190815260200160002081908060018154018082558091505060019003906000526020600020906003020160009091909190915060008201518160000160006101000a81548173ffffffffffffffffffffffffffffffffffffffff021916908373ffffffffffffffffffffffffffffffffffffffff16021790555060208201518160010155604082015181600201555050610b823330858560405180602001604052806000815250611fbe565b610b8a611d6d565b73ffffffffffffffffffffffffffffffffffffffff166108fc349081150290604051600060405180830381858888f19350505050158015610bcf573d6000803e3d6000fd5b507fdf77d64077aa9c0e2775611780fd347af7daff1c05409031627f420a77d308ce81604051610bff91906144f1565b60405180910390a1505050565b6000610c1661223e565b90508073ffffffffffffffffffffffffffffffffffffffff168673ffffffffffffffffffffffffffffffffffffffff1614158015610c5b5750610c598682611f15565b155b15610c9f5780866040517fe237d922000000000000000000000000000000000000000000000000000000008152600401610c9692919061450c565b60405180910390fd5b610cac8686868686612246565b505050505050565b610cbc6131f7565b60056000838152602001908152602001600020604051806080016040529081600082018054610cea90614102565b80601f0160208091040260200160405190810160405280929190818152602001828054610d1690614102565b8015610d635780601f10610d3857610100808354040283529160200191610d63565b820191906000526020600020905b815481529060010190602001808311610d4657829003601f168201915b5050505050815260200160018201548152602001600282015481526020016003820154815250509050919050565b6000600560008681526020019081526020016000206001015414610dea576040517f08c379a0000000000000000000000000000000000000000000000000000000008152600401610de1906145a7565b60405180910390fd5b600080610e00858561233e90919063ffffffff16565b9150915081610e44576040517f08c379a0000000000000000000000000000000000000000000000000000000008152600401610e3b90614613565b60405180910390fd5b600080610e5c6127108461239190919063ffffffff16565b9150915081610ea0576040517f08c379a0000000000000000000000000000000000000000000000000000000008152600401610e979061467f565b60405180910390fd5b6000604051806080016040528087815260200189815260200188815260200183815250905080600560008b81526020019081526020016000206000820151816000019081610eee91906142df565b50602082015181600101556040820151816002015560608201518160030155905050610f2b8a8a8a604051806020016040528060008152506123c7565b8973ffffffffffffffffffffffffffffffffffffffff167f865efc510ae21985ad1621bf1e15503fdd755cdb36f96915398071b5effb4b5a8a83604051610f7392919061469f565b60405180910390a250505050505050505050565b610f948686868686610d91565b610f9e858261099a565b505050505050565b60066020528160005260406000208181548110610fc257600080fd5b9060005260206000209060030201600091509150508060000160009054906101000a900473ffffffffffffffffffffffffffffffffffffffff16908060010154908060020154905083565b6060815183511461105957815183516040517f5b0599910000000000000000000000000000000000000000000000000000000081526004016110509291906146cf565b60405180910390fd5b6000835167ffffffffffffffff81111561107657611075613407565b5b6040519080825280602002602001820160405280156110a45781602001602082028036833780820191505090505b50905060005b845181101561110b576110e16110c9828761246090919063ffffffff16565b6110dc838761247490919063ffffffff16565b6106d9565b8282815181106110f4576110f36146f8565b5b6020026020010181815250508060010190506110aa565b508091505092915050565b60008111611159576040517f08c379a000000000000000000000000000000000000000000000000000000000815260040161115090614773565b60405180910390fd5b60006005600084815260200190815260200160002060010154116111b2576040517f08c379a00000000000000000000000000000000000000000000000000000000081526004016111a9906140b3565b60405180910390fd5b6000819050600060066000858152602001908152602001600020905060005b6000831180156111e45750818054905081105b156114ae5760008282815481106111fe576111fd6146f8565b5b906000526020600020906003020190503373ffffffffffffffffffffffffffffffffffffffff168160000160009054906101000a900473ffffffffffffffffffffffffffffffffffffffff1673ffffffffffffffffffffffffffffffffffffffff16148015611271575060008160020154115b15611499576000611286858360020154612488565b9050808561129491906147c2565b9450808260020160008282546112aa91906147c2565b925050819055503073ffffffffffffffffffffffffffffffffffffffff1663f242432a30338a856040518563ffffffff1660e01b81526004016112f0949392919061482d565b600060405180830381600087803b15801561130a57600080fd5b505af115801561131e573d6000803e3d6000fd5b50505050600082600201540361148c5760008390505b6001858054905061134591906147c2565b811015611425578460018261135a9190614885565b8154811061136b5761136a6146f8565b5b906000526020600020906003020185828154811061138c5761138b6146f8565b5b90600052602060002090600302016000820160009054906101000a900473ffffffffffffffffffffffffffffffffffffffff168160000160006101000a81548173ffffffffffffffffffffffffffffffffffffffff021916908373ffffffffffffffffffffffffffffffffffffffff16021790555060018201548160010155600282015481600201559050508080600101915050611334565b5083805480611437576114366148b9565b5b6001900381819060005260206000209060030201600080820160006101000a81549073ffffffffffffffffffffffffffffffffffffffff02191690556001820160009055600282016000905550509055611493565b50506111d1565b506114a8565b81806114a4906148e8565b9250505b506111d1565b600083146114f1576040517f08c379a00000000000000000000000000000000000000000000000000000000081526004016114e8906149a2565b60405180910390fd5b600060405180606001604052803373ffffffffffffffffffffffffffffffffffffffff1681526020018781526020018681525090507f1025c457451bc4345b69dd1a933c3fe14eb47da4d4e32da8a34f550d3a77012b816040516115559190614a04565b60405180910390a1505050505050565b606060066000838152602001908152602001600020805480602002602001604051908101604052809291908181526020016000905b8282101561163657838290600052602060002090600302016040518060600160405290816000820160009054906101000a900473ffffffffffffffffffffffffffffffffffffffff1673ffffffffffffffffffffffffffffffffffffffff1673ffffffffffffffffffffffffffffffffffffffff168152602001600182015481526020016002820154815250508152602001906001019061159a565b505050509050919050565b6116496124a1565b6116536000612528565b565b600060056000838152602001908152602001600020600201549050919050565b61167d6125ee565b600081116116c0576040517f08c379a00000000000000000000000000000000000000000000000000000000081526004016116b790614a6b565b60405180910390fd5b6000600560008481526020019081526020016000206001015411611719576040517f08c379a0000000000000000000000000000000000000000000000000000000008152600401611710906140b3565b60405180910390fd5b600081905060008060006006600087815260200190815260200160002090505b60008411801561174c5750808054905082105b15611c50576000818381548110611766576117656146f8565b5b90600052602060002090600302019050600081600201541115611af1576000611793868360020154612488565b9050600081600560008b8152602001908152602001600020600201546117b99190614a8b565b905080866117c79190614885565b955081876117d591906147c2565b9650818360020160008282546117eb91906147c2565b925050819055503073ffffffffffffffffffffffffffffffffffffffff1663f242432a30338c866040518563ffffffff1660e01b8152600401611831949392919061482d565b600060405180830381600087803b15801561184b57600080fd5b505af115801561185f573d6000803e3d6000fd5b505050508260000160009054906101000a900473ffffffffffffffffffffffffffffffffffffffff1673ffffffffffffffffffffffffffffffffffffffff166108fc829081150290604051600060405180830381858888f193505050501580156118cd573d6000803e3d6000fd5b50600060405180608001604052803373ffffffffffffffffffffffffffffffffffffffff1681526020018560000160009054906101000a900473ffffffffffffffffffffffffffffffffffffffff1673ffffffffffffffffffffffffffffffffffffffff1681526020018b81526020018481525090507fae22a32696711614709efc3c7d4e407afa95be0f423862ad31ba76186926b8c9816040516119729190614b22565b60405180910390a16000846002015403611ae85760008690505b6001868054905061199d91906147c2565b811015611a7d57856001826119b29190614885565b815481106119c3576119c26146f8565b5b90600052602060002090600302018682815481106119e4576119e36146f8565b5b90600052602060002090600302016000820160009054906101000a900473ffffffffffffffffffffffffffffffffffffffff168160000160006101000a81548173ffffffffffffffffffffffffffffffffffffffff021916908373ffffffffffffffffffffffffffffffffffffffff1602179055506001820154816001015560028201548160020155905050808060010191505061198c565b5084805480611a8f57611a8e6148b9565b5b6001900381819060005260206000209060030201600080820160006101000a81549073ffffffffffffffffffffffffffffffffffffffff0219169055600182016000905560028201600090555050905550505050611739565b50505050611739565b60008390505b60018380549050611b0891906147c2565b811015611be85782600182611b1d9190614885565b81548110611b2e57611b2d6146f8565b5b9060005260206000209060030201838281548110611b4f57611b4e6146f8565b5b90600052602060002090600302016000820160009054906101000a900473ffffffffffffffffffffffffffffffffffffffff168160000160006101000a81548173ffffffffffffffffffffffffffffffffffffffff021916908373ffffffffffffffffffffffffffffffffffffffff16021790555060018201548160010155600282015481600201559050508080600101915050611af7565b5081805480611bfa57611bf96148b9565b5b6001900381819060005260206000209060030201600080820160006101000a81549073ffffffffffffffffffffffffffffffffffffffff0219169055600182016000905560028201600090555050905550611739565b600560008781526020019081526020016000206003015483611c729190614885565b925060008414611cb7576040517f08c379a0000000000000000000000000000000000000000000000000000000008152600401611cae90614baf565b60405180910390fd5b823414611cf9576040517f08c379a0000000000000000000000000000000000000000000000000000000008152600401611cf090614c1b565b60405180910390fd5b611d01611d6d565b73ffffffffffffffffffffffffffffffffffffffff166108fc60056000898152602001908152602001600020600301549081150290604051600060405180830381858888f19350505050158015611d5c573d6000803e3d6000fd5b5050505050611d69612634565b5050565b6000600460009054906101000a900473ffffffffffffffffffffffffffffffffffffffff16905090565b611da9611da261223e565b838361263e565b5050565b60006005600084815260200190815260200160002090506000816001015411611e0b576040517f08c379a0000000000000000000000000000000000000000000000000000000008152600401611e02906140b3565b60405180910390fd5b818160020181905550600080611e2e83600101548561233e90919063ffffffff16565b9150915081611e72576040517f08c379a0000000000000000000000000000000000000000000000000000000008152600401611e6990614613565b60405180910390fd5b600080611e8a6127108461239190919063ffffffff16565b9150915081611ece576040517f08c379a0000000000000000000000000000000000000000000000000000000008152600401611ec59061467f565b60405180910390fd5b80856003018190555050505050505050565b600063bc197c8160e01b905095945050505050565b600060056000838152602001908152602001600020600101549050919050565b6000600160008473ffffffffffffffffffffffffffffffffffffffff1673ffffffffffffffffffffffffffffffffffffffff16815260200190815260200160002060008373ffffffffffffffffffffffffffffffffffffffff1673ffffffffffffffffffffffffffffffffffffffff16815260200190815260200160002060009054906101000a900460ff16905092915050565b600063f23a6e6160e01b905095945050505050565b6000611fc861223e565b90508073ffffffffffffffffffffffffffffffffffffffff168673ffffffffffffffffffffffffffffffffffffffff161415801561200d575061200b8682611f15565b155b156120515780866040517fe237d92200000000000000000000000000000000000000000000000000000000815260040161204892919061450c565b60405180910390fd5b61205e86868686866127ae565b505050505050565b61206e6124a1565b600073ffffffffffffffffffffffffffffffffffffffff168173ffffffffffffffffffffffffffffffffffffffff16036120e05760006040517f1e4fbdf70000000000000000000000000000000000000000000000000000000081526004016120d79190613e66565b60405180910390fd5b6120e981612528565b50565b600560205280600052604060002060009150905080600001805461210f90614102565b80601f016020809104026020016040519081016040528092919081815260200182805461213b90614102565b80156121885780601f1061215d57610100808354040283529160200191612188565b820191906000526020600020905b81548152906001019060200180831161216b57829003601f168201915b5050505050908060010154908060020154908060030154905084565b600060056000838152602001908152602001600020600301549050919050565b60007f4e2312e0000000000000000000000000000000000000000000000000000000007bffffffffffffffffffffffffffffffffffffffffffffffffffffffff1916827bffffffffffffffffffffffffffffffffffffffffffffffffffffffff191614806122375750612236826128b9565b5b9050919050565b600033905090565b600073ffffffffffffffffffffffffffffffffffffffff168473ffffffffffffffffffffffffffffffffffffffff16036122b85760006040517f57f447ce0000000000000000000000000000000000000000000000000000000081526004016122af9190613e66565b60405180910390fd5b600073ffffffffffffffffffffffffffffffffffffffff168573ffffffffffffffffffffffffffffffffffffffff160361232a5760006040517f01a835140000000000000000000000000000000000000000000000000000000081526004016123219190613e66565b60405180910390fd5b612337858585858561299b565b5050505050565b6000806000840361235657600160009150915061238a565b600083850290508385828161236e5761236d614c3b565b5b041461238157600080925092505061238a565b60018192509250505b9250929050565b600080600083036123a857600080915091506123c0565b60018385816123ba576123b9614c3b565b5b04915091505b9250929050565b600073ffffffffffffffffffffffffffffffffffffffff168473ffffffffffffffffffffffffffffffffffffffff16036124395760006040517f57f447ce0000000000000000000000000000000000000000000000000000000081526004016124309190613e66565b60405180910390fd5b6000806124468585612a4d565b9150915061245860008784848761299b565b505050505050565b600060208202602084010151905092915050565b600060208202602084010151905092915050565b60008183106124975781612499565b825b905092915050565b6124a961223e565b73ffffffffffffffffffffffffffffffffffffffff166124c7611d6d565b73ffffffffffffffffffffffffffffffffffffffff1614612526576124ea61223e565b6040517f118cdaa700000000000000000000000000000000000000000000000000000000815260040161251d9190613e66565b60405180910390fd5b565b6000600460009054906101000a900473ffffffffffffffffffffffffffffffffffffffff16905081600460006101000a81548173ffffffffffffffffffffffffffffffffffffffff021916908373ffffffffffffffffffffffffffffffffffffffff1602179055508173ffffffffffffffffffffffffffffffffffffffff168173ffffffffffffffffffffffffffffffffffffffff167f8be0079c531659141344cd1fd0a4f28419497f9722a3daafe3b4186f6b6457e060405160405180910390a35050565b60026003540361262a576040517f3ee5aeb500000000000000000000000000000000000000000000000000000000815260040160405180910390fd5b6002600381905550565b6001600381905550565b600073ffffffffffffffffffffffffffffffffffffffff168273ffffffffffffffffffffffffffffffffffffffff16036126b05760006040517fced3e1000000000000000000000000000000000000000000000000000000000081526004016126a79190613e66565b60405180910390fd5b80600160008573ffffffffffffffffffffffffffffffffffffffff1673ffffffffffffffffffffffffffffffffffffffff16815260200190815260200160002060008473ffffffffffffffffffffffffffffffffffffffff1673ffffffffffffffffffffffffffffffffffffffff16815260200190815260200160002060006101000a81548160ff0219169083151502179055508173ffffffffffffffffffffffffffffffffffffffff168373ffffffffffffffffffffffffffffffffffffffff167f17307eab39ab6107e8899845ad3d59bd9653f200f220920489ca2b5937696c31836040516127a191906133d1565b60405180910390a3505050565b600073ffffffffffffffffffffffffffffffffffffffff168473ffffffffffffffffffffffffffffffffffffffff16036128205760006040517f57f447ce0000000000000000000000000000000000000000000000000000000081526004016128179190613e66565b60405180910390fd5b600073ffffffffffffffffffffffffffffffffffffffff168573ffffffffffffffffffffffffffffffffffffffff16036128925760006040517f01a835140000000000000000000000000000000000000000000000000000000081526004016128899190613e66565b60405180910390fd5b60008061289f8585612a4d565b915091506128b0878784848761299b565b50505050505050565b60007fd9b67a26000000000000000000000000000000000000000000000000000000007bffffffffffffffffffffffffffffffffffffffffffffffffffffffff1916827bffffffffffffffffffffffffffffffffffffffffffffffffffffffff1916148061298457507f0e89341c000000000000000000000000000000000000000000000000000000007bffffffffffffffffffffffffffffffffffffffffffffffffffffffff1916827bffffffffffffffffffffffffffffffffffffffffffffffffffffffff1916145b80612994575061299382612a7d565b5b9050919050565b6129a785858585612ae7565b600073ffffffffffffffffffffffffffffffffffffffff168473ffffffffffffffffffffffffffffffffffffffff1614612a465760006129e561223e565b90506001845103612a35576000612a0660008661247490919063ffffffff16565b90506000612a1e60008661247490919063ffffffff16565b9050612a2e838989858589612e8f565b5050612a44565b612a43818787878787613043565b5b505b5050505050565b60608060405191506001825283602083015260408201905060018152826020820152604081016040529250929050565b60007f01ffc9a7000000000000000000000000000000000000000000000000000000007bffffffffffffffffffffffffffffffffffffffffffffffffffffffff1916827bffffffffffffffffffffffffffffffffffffffffffffffffffffffff1916149050919050565b8051825114612b3157815181516040517f5b059991000000000000000000000000000000000000000000000000000000008152600401612b289291906146cf565b60405180910390fd5b6000612b3b61223e565b905060005b8351811015612d4a576000612b5e828661247490919063ffffffff16565b90506000612b75838661247490919063ffffffff16565b9050600073ffffffffffffffffffffffffffffffffffffffff168873ffffffffffffffffffffffffffffffffffffffff1614612ca257600080600084815260200190815260200160002060008a73ffffffffffffffffffffffffffffffffffffffff1673ffffffffffffffffffffffffffffffffffffffff16815260200190815260200160002054905081811015612c4a57888183856040517f03dee4c5000000000000000000000000000000000000000000000000000000008152600401612c419493929190614c6a565b60405180910390fd5b81810360008085815260200190815260200160002060008b73ffffffffffffffffffffffffffffffffffffffff1673ffffffffffffffffffffffffffffffffffffffff16815260200190815260200160002081905550505b600073ffffffffffffffffffffffffffffffffffffffff168773ffffffffffffffffffffffffffffffffffffffff1614612d3d578060008084815260200190815260200160002060008973ffffffffffffffffffffffffffffffffffffffff1673ffffffffffffffffffffffffffffffffffffffff1681526020019081526020016000206000828254612d359190614885565b925050819055505b5050806001019050612b40565b506001835103612e09576000612d6a60008561247490919063ffffffff16565b90506000612d8260008561247490919063ffffffff16565b90508573ffffffffffffffffffffffffffffffffffffffff168773ffffffffffffffffffffffffffffffffffffffff168473ffffffffffffffffffffffffffffffffffffffff167fc3d58168c5ae7397731d063d5bbf3d657854427343f4c083240f7aacaa2d0f628585604051612dfa9291906146cf565b60405180910390a45050612e88565b8373ffffffffffffffffffffffffffffffffffffffff168573ffffffffffffffffffffffffffffffffffffffff168273ffffffffffffffffffffffffffffffffffffffff167f4a39dc06d4c0dbc64b70af90fd698a233a518aa5d07e595d983b8c0526c8f7fb8686604051612e7f929190614caf565b60405180910390a45b5050505050565b60008473ffffffffffffffffffffffffffffffffffffffff163b111561303b578373ffffffffffffffffffffffffffffffffffffffff1663f23a6e6187878686866040518663ffffffff1660e01b8152600401612ef0959493929190614d2a565b6020604051808303816000875af1925050508015612f2c57506040513d601f19601f82011682018060405250810190612f299190614d99565b60015b612fb0573d8060008114612f5c576040519150601f19603f3d011682016040523d82523d6000602084013e612f61565b606091505b506000815103612fa857846040517f57f447ce000000000000000000000000000000000000000000000000000000008152600401612f9f9190613e66565b60405180910390fd5b805181602001fd5b63f23a6e6160e01b7bffffffffffffffffffffffffffffffffffffffffffffffffffffffff1916817bffffffffffffffffffffffffffffffffffffffffffffffffffffffff19161461303957846040517f57f447ce0000000000000000000000000000000000000000000000000000000081526004016130309190613e66565b60405180910390fd5b505b505050505050565b60008473ffffffffffffffffffffffffffffffffffffffff163b11156131ef578373ffffffffffffffffffffffffffffffffffffffff1663bc197c8187878686866040518663ffffffff1660e01b81526004016130a4959493929190614dc6565b6020604051808303816000875af19250505080156130e057506040513d601f19601f820116820180604052508101906130dd9190614d99565b60015b613164573d8060008114613110576040519150601f19603f3d011682016040523d82523d6000602084013e613115565b606091505b50600081510361315c57846040517f57f447ce0000000000000000000000000000000000000000000000000000000081526004016131539190613e66565b60405180910390fd5b805181602001fd5b63bc197c8160e01b7bffffffffffffffffffffffffffffffffffffffffffffffffffffffff1916817bffffffffffffffffffffffffffffffffffffffffffffffffffffffff1916146131ed57846040517f57f447ce0000000000000000000000000000000000000000000000000000000081526004016131e49190613e66565b60405180910390fd5b505b505050505050565b6040518060800160405280606081526020016000815260200160008152602001600081525090565b6000604051905090565b600080fd5b600080fd5b600073ffffffffffffffffffffffffffffffffffffffff82169050919050565b600061325e82613233565b9050919050565b61326e81613253565b811461327957600080fd5b50565b60008135905061328b81613265565b92915050565b6000819050919050565b6132a481613291565b81146132af57600080fd5b50565b6000813590506132c18161329b565b92915050565b600080604083850312156132de576132dd613229565b5b60006132ec8582860161327c565b92505060206132fd858286016132b2565b9150509250929050565b61331081613291565b82525050565b600060208201905061332b6000830184613307565b92915050565b60007fffffffff0000000000000000000000000000000000000000000000000000000082169050919050565b61336681613331565b811461337157600080fd5b50565b6000813590506133838161335d565b92915050565b60006020828403121561339f5761339e613229565b5b60006133ad84828501613374565b91505092915050565b60008115159050919050565b6133cb816133b6565b82525050565b60006020820190506133e660008301846133c2565b92915050565b600080fd5b600080fd5b6000601f19601f8301169050919050565b7f4e487b7100000000000000000000000000000000000000000000000000000000600052604160045260246000fd5b61343f826133f6565b810181811067ffffffffffffffff8211171561345e5761345d613407565b5b80604052505050565b600061347161321f565b905061347d8282613436565b919050565b600067ffffffffffffffff82111561349d5761349c613407565b5b6134a6826133f6565b9050602081019050919050565b82818337600083830152505050565b60006134d56134d084613482565b613467565b9050828152602081018484840111156134f1576134f06133f1565b5b6134fc8482856134b3565b509392505050565b600082601f830112613519576135186133ec565b5b81356135298482602086016134c2565b91505092915050565b6000806040838503121561354957613548613229565b5b6000613557858286016132b2565b925050602083013567ffffffffffffffff8111156135785761357761322e565b5b61358485828601613504565b9150509250929050565b6000602082840312156135a4576135a3613229565b5b60006135b2848285016132b2565b91505092915050565b600081519050919050565b600082825260208201905092915050565b60005b838110156135f55780820151818401526020810190506135da565b60008484015250505050565b600061360c826135bb565b61361681856135c6565b93506136268185602086016135d7565b61362f816133f6565b840191505092915050565b600060208201905081810360008301526136548184613601565b905092915050565b6000806040838503121561367357613672613229565b5b6000613681858286016132b2565b9250506020613692858286016132b2565b9150509250929050565b600067ffffffffffffffff8211156136b7576136b6613407565b5b602082029050602081019050919050565b600080fd5b60006136e06136db8461369c565b613467565b90508083825260208201905060208402830185811115613703576137026136c8565b5b835b8181101561372c578061371888826132b2565b845260208401935050602081019050613705565b5050509392505050565b600082601f83011261374b5761374a6133ec565b5b813561375b8482602086016136cd565b91505092915050565b600067ffffffffffffffff82111561377f5761377e613407565b5b613788826133f6565b9050602081019050919050565b60006137a86137a384613764565b613467565b9050828152602081018484840111156137c4576137c36133f1565b5b6137cf8482856134b3565b509392505050565b600082601f8301126137ec576137eb6133ec565b5b81356137fc848260208601613795565b91505092915050565b600080600080600060a0868803121561382157613820613229565b5b600061382f8882890161327c565b95505060206138408882890161327c565b945050604086013567ffffffffffffffff8111156138615761386061322e565b5b61386d88828901613736565b935050606086013567ffffffffffffffff81111561388e5761388d61322e565b5b61389a88828901613736565b925050608086013567ffffffffffffffff8111156138bb576138ba61322e565b5b6138c7888289016137d7565b9150509295509295909350565b600082825260208201905092915050565b60006138f0826135bb565b6138fa81856138d4565b935061390a8185602086016135d7565b613913816133f6565b840191505092915050565b61392781613291565b82525050565b6000608083016000830151848203600086015261394a82826138e5565b915050602083015161395f602086018261391e565b506040830151613972604086018261391e565b506060830151613985606086018261391e565b508091505092915050565b600060208201905081810360008301526139aa818461392d565b905092915050565b600080600080600060a086880312156139ce576139cd613229565b5b60006139dc8882890161327c565b95505060206139ed888289016132b2565b94505060406139fe888289016132b2565b9350506060613a0f888289016132b2565b925050608086013567ffffffffffffffff811115613a3057613a2f61322e565b5b613a3c88828901613504565b9150509295509295909350565b60008060008060008060c08789031215613a6657613a65613229565b5b6000613a7489828a0161327c565b9650506020613a8589828a016132b2565b9550506040613a9689828a016132b2565b9450506060613aa789828a016132b2565b935050608087013567ffffffffffffffff811115613ac857613ac761322e565b5b613ad489828a01613504565b92505060a0613ae589828a016132b2565b9150509295509295509295565b613afb81613253565b82525050565b6000606082019050613b166000830186613af2565b613b236020830185613307565b613b306040830184613307565b949350505050565b600067ffffffffffffffff821115613b5357613b52613407565b5b602082029050602081019050919050565b6000613b77613b7284613b38565b613467565b90508083825260208201905060208402830185811115613b9a57613b996136c8565b5b835b81811015613bc35780613baf888261327c565b845260208401935050602081019050613b9c565b5050509392505050565b600082601f830112613be257613be16133ec565b5b8135613bf2848260208601613b64565b91505092915050565b60008060408385031215613c1257613c11613229565b5b600083013567ffffffffffffffff811115613c3057613c2f61322e565b5b613c3c85828601613bcd565b925050602083013567ffffffffffffffff811115613c5d57613c5c61322e565b5b613c6985828601613736565b9150509250929050565b600081519050919050565b600082825260208201905092915050565b6000819050602082019050919050565b6000613cab838361391e565b60208301905092915050565b6000602082019050919050565b6000613ccf82613c73565b613cd98185613c7e565b9350613ce483613c8f565b8060005b83811015613d15578151613cfc8882613c9f565b9750613d0783613cb7565b925050600181019050613ce8565b5085935050505092915050565b60006020820190508181036000830152613d3c8184613cc4565b905092915050565b600081519050919050565b600082825260208201905092915050565b6000819050602082019050919050565b613d7981613253565b82525050565b606082016000820151613d956000850182613d70565b506020820151613da8602085018261391e565b506040820151613dbb604085018261391e565b50505050565b6000613dcd8383613d7f565b60608301905092915050565b6000602082019050919050565b6000613df182613d44565b613dfb8185613d4f565b9350613e0683613d60565b8060005b83811015613e37578151613e1e8882613dc1565b9750613e2983613dd9565b925050600181019050613e0a565b5085935050505092915050565b60006020820190508181036000830152613e5e8184613de6565b905092915050565b6000602082019050613e7b6000830184613af2565b92915050565b613e8a816133b6565b8114613e9557600080fd5b50565b600081359050613ea781613e81565b92915050565b60008060408385031215613ec457613ec3613229565b5b6000613ed28582860161327c565b9250506020613ee385828601613e98565b9150509250929050565b613ef681613331565b82525050565b6000602082019050613f116000830184613eed565b92915050565b60008060408385031215613f2e57613f2d613229565b5b6000613f3c8582860161327c565b9250506020613f4d8582860161327c565b9150509250929050565b600080600080600060a08688031215613f7357613f72613229565b5b6000613f818882890161327c565b9550506020613f928882890161327c565b9450506040613fa3888289016132b2565b9350506060613fb4888289016132b2565b925050608086013567ffffffffffffffff811115613fd557613fd461322e565b5b613fe1888289016137d7565b9150509295509295909350565b60006020828403121561400457614003613229565b5b60006140128482850161327c565b91505092915050565b600060808201905081810360008301526140358187613601565b90506140446020830186613307565b6140516040830185613307565b61405e6060830184613307565b95945050505050565b7f50726f706572747920686173206e6f74206265656e20746f6b656e697a65642e600082015250565b600061409d6020836135c6565b91506140a882614067565b602082019050919050565b600060208201905081810360008301526140cc81614090565b9050919050565b7f4e487b7100000000000000000000000000000000000000000000000000000000600052602260045260246000fd5b6000600282049050600182168061411a57607f821691505b60208210810361412d5761412c6140d3565b5b50919050565b60008190508160005260206000209050919050565b60006020601f8301049050919050565b600082821b905092915050565b6000600883026141957fffffffffffffffffffffffffffffffffffffffffffffffffffffffffffffffff82614158565b61419f8683614158565b95508019841693508086168417925050509392505050565b6000819050919050565b60006141dc6141d76141d284613291565b6141b7565b613291565b9050919050565b6000819050919050565b6141f6836141c1565b61420a614202826141e3565b848454614165565b825550505050565b600090565b61421f614212565b61422a8184846141ed565b505050565b5b8181101561424e57614243600082614217565b600181019050614230565b5050565b601f8211156142935761426481614133565b61426d84614148565b8101602085101561427c578190505b61429061428885614148565b83018261422f565b50505b505050565b600082821c905092915050565b60006142b660001984600802614298565b1980831691505092915050565b60006142cf83836142a5565b9150826002028217905092915050565b6142e8826135bb565b67ffffffffffffffff81111561430157614300613407565b5b61430b8254614102565b614316828285614252565b600060209050601f8311600181146143495760008415614337578287015190505b61434185826142c3565b8655506143a9565b601f19841661435786614133565b60005b8281101561437f5784890151825560018201915060208501945060208101905061435a565b8683101561439c5784890151614398601f8916826142a5565b8355505b6001600288020188555050505b505050505050565b7f496e73756666696369656e742070726f706572747920746f6b656e2062616c6160008201527f6e63652e00000000000000000000000000000000000000000000000000000000602082015250565b600061440d6024836135c6565b9150614418826143b1565b604082019050919050565b6000602082019050818103600083015261443c81614400565b9050919050565b7f496e636f72726563742066656520616d6f756e742e0000000000000000000000600082015250565b60006144796015836135c6565b915061448482614443565b602082019050919050565b600060208201905081810360008301526144a88161446c565b9050919050565b6060820160008201516144c56000850182613d70565b5060208201516144d8602085018261391e565b5060408201516144eb604085018261391e565b50505050565b600060608201905061450660008301846144af565b92915050565b60006040820190506145216000830185613af2565b61452e6020830184613af2565b9392505050565b7f50726f7065727479207761732070726576696f75736c7920746f6b656e697a6560008201527f642e000000000000000000000000000000000000000000000000000000000000602082015250565b60006145916022836135c6565b915061459c82614535565b604082019050919050565b600060208201905081810360008301526145c081614584565b9050919050565b7f50726f70657274792056616c7565204f766572666c6f772e0000000000000000600082015250565b60006145fd6018836135c6565b9150614608826145c7565b602082019050919050565b6000602082019050818103600083015261462c816145f0565b9050919050565b7f43616e6e6f7420646976696465206279207a65726f2e00000000000000000000600082015250565b60006146696016836135c6565b915061467482614633565b602082019050919050565b600060208201905081810360008301526146988161465c565b9050919050565b60006040820190506146b46000830185613307565b81810360208301526146c6818461392d565b90509392505050565b60006040820190506146e46000830185613307565b6146f16020830184613307565b9392505050565b7f4e487b7100000000000000000000000000000000000000000000000000000000600052603260045260246000fd5b7f43616e6e6f742064656c697374207a65726f20746f6b656e732e000000000000600082015250565b600061475d601a836135c6565b915061476882614727565b602082019050919050565b6000602082019050818103600083015261478c81614750565b9050919050565b7f4e487b7100000000000000000000000000000000000000000000000000000000600052601160045260246000fd5b60006147cd82613291565b91506147d883613291565b92508282039050818111156147f0576147ef614793565b5b92915050565b600082825260208201905092915050565b50565b60006148176000836147f6565b915061482282614807565b600082019050919050565b600060a0820190506148426000830187613af2565b61484f6020830186613af2565b61485c6040830185613307565b6148696060830184613307565b818103608083015261487a8161480a565b905095945050505050565b600061489082613291565b915061489b83613291565b92508282019050808211156148b3576148b2614793565b5b92915050565b7f4e487b7100000000000000000000000000000000000000000000000000000000600052603160045260246000fd5b60006148f382613291565b91507fffffffffffffffffffffffffffffffffffffffffffffffffffffffffffffffff820361492557614924614793565b5b600182019050919050565b7f4e6f7420656e6f75676820746f6b656e73206c697374656420746f2064656c6960008201527f7374207468652072657175657374656420616d6f756e742e0000000000000000602082015250565b600061498c6038836135c6565b915061499782614930565b604082019050919050565b600060208201905081810360008301526149bb8161497f565b9050919050565b6060820160008201516149d86000850182613d70565b5060208201516149eb602085018261391e565b5060408201516149fe604085018261391e565b50505050565b6000606082019050614a1960008301846149c2565b92915050565b7f43616e6e6f7420627579207a65726f20746f6b656e732e000000000000000000600082015250565b6000614a556017836135c6565b9150614a6082614a1f565b602082019050919050565b60006020820190508181036000830152614a8481614a48565b9050919050565b6000614a9682613291565b9150614aa183613291565b9250828202614aaf81613291565b91508282048414831517614ac657614ac5614793565b5b5092915050565b608082016000820151614ae36000850182613d70565b506020820151614af66020850182613d70565b506040820151614b09604085018261391e565b506060820151614b1c606085018261391e565b50505050565b6000608082019050614b376000830184614acd565b92915050565b7f4e6f7420656e6f75676820746f6b656e7320617661696c61626c6520666f722060008201527f73616c652e000000000000000000000000000000000000000000000000000000602082015250565b6000614b996025836135c6565b9150614ba482614b3d565b604082019050919050565b60006020820190508181036000830152614bc881614b8c565b9050919050565b7f496e636f7272656374207061796d656e7420616d6f756e742e00000000000000600082015250565b6000614c056019836135c6565b9150614c1082614bcf565b602082019050919050565b60006020820190508181036000830152614c3481614bf8565b9050919050565b7f4e487b7100000000000000000000000000000000000000000000000000000000600052601260045260246000fd5b6000608082019050614c7f6000830187613af2565b614c8c6020830186613307565b614c996040830185613307565b614ca66060830184613307565b95945050505050565b60006040820190508181036000830152614cc98185613cc4565b90508181036020830152614cdd8184613cc4565b90509392505050565b600081519050919050565b6000614cfc82614ce6565b614d0681856147f6565b9350614d168185602086016135d7565b614d1f816133f6565b840191505092915050565b600060a082019050614d3f6000830188613af2565b614d4c6020830187613af2565b614d596040830186613307565b614d666060830185613307565b8181036080830152614d788184614cf1565b90509695505050505050565b600081519050614d938161335d565b92915050565b600060208284031215614daf57614dae613229565b5b6000614dbd84828501614d84565b91505092915050565b600060a082019050614ddb6000830188613af2565b614de86020830187613af2565b8181036040830152614dfa8186613cc4565b90508181036060830152614e0e8185613cc4565b90508181036080830152614e228184614cf1565b9050969550505050505056fea2646970667358221220c01736c35d7c69cd2dcee79019d30f6ab2cea9b8ce8701d60e73538ecbe5c2e164736f6c63430008180033",
  "linkReferences": {},
  "deployedLinkReferences": {}
}